{
  "contractName": "BuyerContract",
  "abi": [
    {
      "inputs": [],
      "payable": false,
      "stateMutability": "nonpayable",
      "type": "constructor"
    },
    {
      "anonymous": false,
      "inputs": [],
      "name": "ProductReceived",
      "type": "event"
    },
    {
      "constant": false,
      "inputs": [
        {
          "name": "contract_address",
          "type": "address"
        }
      ],
      "name": "setSellerContract",
      "outputs": [],
      "payable": false,
      "stateMutability": "nonpayable",
      "type": "function"
    },
    {
      "constant": false,
      "inputs": [],
      "name": "sendBuyOrder",
      "outputs": [],
      "payable": false,
      "stateMutability": "nonpayable",
      "type": "function"
    },
    {
      "constant": false,
      "inputs": [],
      "name": "receiveProduct",
      "outputs": [],
      "payable": false,
      "stateMutability": "nonpayable",
      "type": "function"
    }
  ],
  "bytecode": "0x608060405234801561001057600080fd5b50610209806100206000396000f300608060405260043610610057576000357c0100000000000000000000000000000000000000000000000000000000900463ffffffff16806325aaa8e71461005c5780635b9d413e1461009f578063b33f0465146100b6575b600080fd5b34801561006857600080fd5b5061009d600480360381019080803573ffffffffffffffffffffffffffffffffffffffff1690602001909291905050506100cd565b005b3480156100ab57600080fd5b506100b4610110565b005b3480156100c257600080fd5b506100cb61013e565b005b806000806101000a81548173ffffffffffffffffffffffffffffffffffffffff021916908373ffffffffffffffffffffffffffffffffffffffff16021790555050565b7f09a139b0cd9b30ac45de212aba495dac2542383d58030da34543efcf5ad34ad760405160405180910390a1565b6000809054906101000a900473ffffffffffffffffffffffffffffffffffffffff1673ffffffffffffffffffffffffffffffffffffffff1663aa6b75c06040518163ffffffff167c0100000000000000000000000000000000000000000000000000000000028152600401600060405180830381600087803b1580156101c357600080fd5b505af11580156101d7573d6000803e3d6000fd5b505050505600a165627a7a723058200d541070f155ff54112acf2b5e215a2e246944a38a2a8000a58b3813a41191660029",
  "source": "pragma solidity ^0.4.17;\n\ncontract BuyerContract {\n\tevent ProductReceived();\n\n\tSellerContract _sellerContract;\n\n\tconstructor() {}\n\n\tfunction setSellerContract(address contract_address) public {\n\t\t_sellerContract = SellerContract(contract_address);\n\t}\n\n\tfunction sendBuyOrder() {\n\t\t_sellerContract.receiveBuyOrder();\n\t}\n\n\tfunction receiveProduct() public {\n\t\temit ProductReceived();\n\t}\n}\n\ncontract SellerContract {\n    event BuyOrderReceived();\n\n    BuyerContract _buyerContract;\n\n    constructor() {}\n\n\tfunction setBuyerContract(address contract_address) public {\n\t\t_buyerContract = BuyerContract(contract_address);\n\t}\n\n    function receiveBuyOrder() public {\n    \temit BuyOrderReceived();\n    }\n\n    function sendProduct() public {\n    \t_buyerContract.receiveProduct();\n    }\n}\n",
  "sourcePath": "/Users/philipp/Repositories/ProcessesMeetBlockchain/ProcessesMeetBlockchain2018/armadillo_v2/contracts/BuySellContracts.sol",
  "compiler": {
    "name": "solc",
    "version": "0.4.24+commit.e67f0147.Emscripten.clang"
  },
  "schemaVersion": "2.0.0",
  "updatedAt": "2018-05-30T12:20:10.415Z"
}