{
  "contractName": "SellerContract",
  "abi": [
    {
      "inputs": [],
      "payable": false,
      "stateMutability": "nonpayable",
      "type": "constructor"
    },
    {
      "anonymous": false,
      "inputs": [],
      "name": "BuyOrderReceived",
      "type": "event"
    },
    {
      "constant": false,
      "inputs": [
        {
          "name": "contract_address",
          "type": "address"
        }
      ],
      "name": "setBuyerContract",
      "outputs": [],
      "payable": false,
      "stateMutability": "nonpayable",
      "type": "function"
    },
    {
      "constant": false,
      "inputs": [],
      "name": "receiveBuyOrder",
      "outputs": [],
      "payable": false,
      "stateMutability": "nonpayable",
      "type": "function"
    },
    {
      "constant": false,
      "inputs": [],
      "name": "sendProduct",
      "outputs": [],
      "payable": false,
      "stateMutability": "nonpayable",
      "type": "function"
    }
  ],
  "bytecode": "0x608060405234801561001057600080fd5b50610209806100206000396000f300608060405260043610610057576000357c0100000000000000000000000000000000000000000000000000000000900463ffffffff1680633c5cb30b1461005c578063401b71e114610073578063aa6b75c0146100b6575b600080fd5b34801561006857600080fd5b506100716100cd565b005b34801561007f57600080fd5b506100b4600480360381019080803573ffffffffffffffffffffffffffffffffffffffff16906020019092919050505061016c565b005b3480156100c257600080fd5b506100cb6101af565b005b6000809054906101000a900473ffffffffffffffffffffffffffffffffffffffff1673ffffffffffffffffffffffffffffffffffffffff16635b9d413e6040518163ffffffff167c0100000000000000000000000000000000000000000000000000000000028152600401600060405180830381600087803b15801561015257600080fd5b505af1158015610166573d6000803e3d6000fd5b50505050565b806000806101000a81548173ffffffffffffffffffffffffffffffffffffffff021916908373ffffffffffffffffffffffffffffffffffffffff16021790555050565b7fbdaf2f5f5497db7dc7a5b68b85c3bc01aba82aea9d82e45a9cc476cbc617a62560405160405180910390a15600a165627a7a723058201c28ec7288072e5801387972c1765185b92a557249df0d564906ed43a5ec58dc0029",
  "source": "pragma solidity ^0.4.17;\n\ncontract BuyerContract {\n\tevent ProductReceived();\n\n\tSellerContract _sellerContract;\n\n\tconstructor() {}\n\n\tfunction setSellerContract(address contract_address) public {\n\t\t_sellerContract = SellerContract(contract_address);\n\t}\n\n\tfunction sendBuyOrder() {\n\t\t_sellerContract.receiveBuyOrder();\n\t}\n\n\tfunction receiveProduct() public {\n\t\temit ProductReceived();\n\t}\n}\n\ncontract SellerContract {\n    event BuyOrderReceived();\n\n    BuyerContract _buyerContract;\n\n    constructor() {}\n\n\tfunction setBuyerContract(address contract_address) public {\n\t\t_buyerContract = BuyerContract(contract_address);\n\t}\n\n    function receiveBuyOrder() public {\n    \temit BuyOrderReceived();\n    }\n\n    function sendProduct() public {\n    \t_buyerContract.receiveProduct();\n    }\n}\n",
  "sourcePath": "/Users/philipp/Repositories/ProcessesMeetBlockchain/ProcessesMeetBlockchain2018/armadillo_v2/contracts/BuySellContracts.sol",
  "compiler": {
    "name": "solc",
    "version": "0.4.24+commit.e67f0147.Emscripten.clang"
  },
  "schemaVersion": "2.0.0",
  "updatedAt": "2018-05-30T12:20:10.414Z"
}